:020000040800F2
:10000000005000206D150008510500085305000838
:1000100055050008570500085905000800000000B4
:100020000000000000000000000000005B05000868
:100030005D050008000000005F050008610500087C
:10004000B5150008B5150008B5150008B515000868
:10005000B5150008B5150008B5150008B515000858
:10006000B5150008B5150008B5150008B515000848
:10007000B5150008B5150008B5150008B515000838
:10008000B5150008B5150008B5150008B515000828
:10009000B5150008B5150008B5150008B515000818
:1000A000B5150008B5150008B5150008B515000808
:1000B000B5150008B5150008B5150008B5150008F8
:1000C000B5150008B5150008B5150008B5150008E8
:1000D000B5150008B5150008B5150008B5150008D8
:1000E000B5150008B5150008B5150008000000009A
:1000F0000000000000000000000000000000000000
:0C01000000000000000000005FF808F1A3
:10010C0010B5054C237833B9044B13B10448AFF345
:10011C0000800123237010BD0C00002000000000A3
:10012C001016000808B5034B1BB103490348AFF385
:10013C00008008BD00000000100000201016000810
:10014C0000B58FB000230A930B930C930D93089377
:10015C0009930193029303930493059306930793D6
:10016C0022484FF08042026040F2F31242608360FA
:10017C001022C26003618023836100F091FF30BBC9
:10018C000EA94FF4805341F8103D184801F083F844
:10019C0000BB164800F0AFFFF8B900230893099391
:1001AC0008A9124801F0A8F9D0B9602301930723DC
:1001BC00029300220392059201A90C4800F0F8FF6B
:1001CC0088B90A4800F098F90FB05DF804FB00F00C
:1001DC005BF9D5E700F058F9DBE700F055F9DCE7FF
:1001EC0000F052F9E1E700F04FF9EAE728000020AF
:1001FC0000B58FB000230A930B930C930D930893C7
:10020C000993019302930393049305930693079325
:10021C0022484FF08042026040F2F3124260836049
:10022C001F22C26003618023836100F039FF30BB61
:10023C000EA94FF4805341F8103D184801F02BF8EB
:10024C0000BB164800F057FFF8B900230893099338
:10025C0008A9124801F050F9D0B9602301930C237E
:10026C00029300220392059201A90C4800F0A0FF12
:10027C0088B90A4800F040F90FB05DF804FB00F0B3
:10028C0003F9D5E700F000F9DBE700F0FDF8DCE757
:10029C0000F0FAF8E1E700F0F7F8EAE728000020B0
:1002AC0008B520B90021034801F072F808BDFFF72A
:1002BC0047FFF7E72800002008B50021014801F0AE
:1002CC00D9F808BD2800002010B504460120FFF71E
:1002DC00E7FF204600F08CF9FFF7EEFF204600F018
:1002EC0087F910BD10B50446FFF72AFF0020FFF771
:1002FC00D7FF204600F07CF9FFF7DEFFFFF778FF11
:10030C000020FFF7CDFF204600F072F9FFF7D4FF75
:10031C0010BD000030B589B00024049405940694F7
:10032C0007941D4B9A6942F010029A619A6902F087
:10033C0010020092009A9A6942F020029A619A691E
:10034C0002F020020192019A9A6942F004029A6129
:10035C009A6902F004020292029A9A6942F0080227
:10036C009A619B6903F008030393039B0B4D224690
:10037C004FF48661284600F097FA4FF48663049395
:10038C000123059306940223079304A9284600F041
:10039C009FF909B030BD00BF00100240000C0140B5
:1003AC0010B590B02422002107A801F023F90024F5
:1003BC00019402940394049405940223069301235C
:1003CC000A9310230B9306A800F08AFA0F230193CB
:1003DC00029403944FF4806304930594214601A87E
:1003EC0000F0BEFC10B010BD10B500F0DDF8FFF74A
:1003FC00D7FFFFF78FFF17E04FF4FA70FFF772FF8C
:10040C000134E4B2062CF7D9002405E04FF49670C1
:10041C00FFF75AFF0134E4B2032CF7D900224FF452
:10042C008061184800F040FA164C01222021204629
:10043C0000F03AFA41F6583000F0DAF800222021A8
:10044C00204600F031FA01221021204600F02CFA4F
:10045C0040F2DC5000F0CCF80120FFF721FF40F215
:10046C00DC5000F0C5F8FFF727FF002210212046D2
:10047C0000F01AFA01224FF48061204600F014FAC1
:10048C000024BFE7000C01407047000082B00E4B07
:10049C009A6942F001029A619A6902F00102009293
:1004AC00009ADA6942F08052DA61DB6903F080531A
:1004BC000193019B054A536823F0E06343F00073FA
:1004CC00536002B0704700BF0010024000000140B2
:1004DC000368B3F1804F00D0704782B003F504334A
:1004EC00DA6942F00102DA61DB6903F0010301937E
:1004FC00019B02B07047000000B587B00023029347
:10050C000393049305930368B3F1804F02D007B0B3
:10051C005DF804FB03F504339A6942F004029A6116
:10052C009B6903F004030193019B012302930223B3
:10053C000393059302A9024800F0CAF8E7E700BF4D
:10054C00000801407047FEE7FEE7FEE7FEE7704754
:10055C007047704708B500F039F808BD70470000C7
:10056C0010B504460E4B18784FF47A73B3FBF0F3C6
:10057C000C4A1068B0FBF3F000F094F868B90F2C3B
:10058C0001D901200AE0002221464FF0FF3000F093
:10059C0055F8034B5C60002000E0012010BD00BF4B
:1005AC00040000200000002008B5074A136843F03F
:1005BC0010031360032000F02FF80020FFF7D0FF8A
:1005CC00FFF764FF002008BD00200240034A1168B9
:1005DC00034B1B780B441360704700BF7000002066
:1005EC0004000020014B1868704700BF7000002009
:1005FC0038B50446FFF7F6FF0546B4F1FF3F02D0CD
:10060C00044B1B781C44FFF7EDFF401BA042FAD3B0
:10061C0038BD00BF04000020074AD36823F4E06310
:10062C001B041B0C000200F4E060184340F0BF6098
:10063C0040F40030D060704700ED00E030B4174B50
:10064C00DB68C3F30223C3F10704042C28BF042482
:10065C001D1D062D18D9033B4FF0FF3505FA04F488
:10066C0021EA0401994005FA03F322EA0303194332
:10067C0000280BDB0901C9B200F1604000F56140B4
:10068C0080F8001330BC70470023E5E700F00F0042
:10069C000901C9B2024B1954F4E700BF00ED00E0A8
:1006AC0014ED00E00138B0F1807F0AD2064B58609F
:1006BC00064AF02182F823100020986007221A6065
:1006CC0070470120704700BF10E000E000ED00E033
:1006DC00F0B482B000263246A2E0002D5AD0012D93
:1006EC0000D1CE68FF2B69D88446FF2B69D89500C2
:1006FC00DCF800400F27AF4024EA070406FA05F5A2
:10070C002C43CCF800404C6814F0805F00F08780DC
:10071C005F4CA56945F00105A561A46904F00104CD
:10072C000194019C9508AF1C5A4C54F8274002F0D8
:10073C000307BF004FF00F0C0CFA07FC24EA0C0C5B
:10074C00554CA04243D004F58064A04200F0818057
:10075C0004F58064A0427ED004F58064A04234D0BD
:10076C00042435E04D4FBD4214D00BD94C4FBD4243
:10077C0010D007F58037BD420CD0A7F58017BD42CD
:10078C00B0D107E0A7F58017BD4203D007F580373D
:10079C00BD42A7D18D687DB1012D08D044610826DA
:1007AC00A0E7CE6808369DE7CE680C369AE7046160
:1007BC00082697E7002695E7042693E700F1040C3A
:1007CC0093E7A2F10805AD0092E7032400E00024B2
:1007DC00BC4044EA0C0402352E4F47F825404C68C7
:1007EC0014F4803F39D02F4D2C681C432C604C687E
:1007FC0014F4003F37D02B4D6C681C436C604C6874
:10080C0014F4801F35D0274DAC681C43AC604C6889
:10081C0014F4001F33D0234DEC682343EB600132FA
:10082C000B6833FA02F430D00124944023409C42EC
:10083C00F5D14D68122DB7D094D8022DB1D07FF6DA
:10084C004CAF032DB6D0112D7FF44CAFCE680436CF
:10085C0048E70124BCE70224BAE7124D2C6824EACD
:10086C0003042C60C3E70F4D6C6824EA03046C602E
:10087C00C5E70C4DAC6824EA0304AC60C7E7094D2E
:10088C00EC6824EA0303EB60C9E702B0F0BC7047E4
:10089C00001002400000014000080140000021103F
:1008AC00000031100004014012B9090401617047C5
:1008BC000161704782B0084B1B68084AA2FB0323F6
:1008CC005B0A00FB03F0019000BF019B5A1E0192D2
:1008DC00002BF9D102B0704700000020D34D6210FC
:1008EC00002800F0F58170B582B00446036813F05F
:1008FC00010F2CD0AB4B5B6803F00C03042B1DD009
:10090C00A84B5B6803F00C03082B12D06368B3F59B
:10091C00803F41D0002B55D103F1804303F50433C4
:10092C001A6822F480321A601A6822F480221A6043
:10093C0037E09C4B5B6813F4803FE7D0994B1B6806
:10094C0013F4003F03D06368002B00F0C3812368CD
:10095C0013F0020F76D0934B5B6813F00C0F5FD043
:10096C00904B5B6803F00C03082B54D02369002BCD
:10097C0000F08A808C4B01221A60FFF733FE05468B
:10098C00884B1B6813F0020F75D1FFF72BFE401B31
:10099C000228F5D90320A0E1824A136843F480337E
:1009AC001360636843B3FFF71DFE05467D4B1B6860
:1009BC0013F4003FCBD1FFF715FE401B6428F5D98B
:1009CC0003208AE1B3F5A02F09D0764B1A6822F4E4
:1009DC0080321A601A6822F480221A60E1E703F16F
:1009EC008043A3F53C331A6842F480221A601A68DB
:1009FC0042F480321A60D4E7FFF7F4FD0546694BE8
:100A0C001B6813F4003FA2D0FFF7ECFD401B6428D9
:100A1C00F5D9032061E1634B5B6813F4803FA5D1EA
:100A2C00604B1B6813F0020F04D02369012B01D01B
:100A3C00012052E15B4A136823F0F803616943EA31
:100A4C00C1031360236813F0080F32D0A369002B85
:100A5C005BD0564B01221A60FFF7C4FD0546514B83
:100A6C005B6A13F0020F21D1FFF7BCFD401B02287B
:100A7C00F5D9032031E14B4A136823F0F80361697F
:100A8C0043EAC1031360DDE7474B00221A60FFF70E
:100A9C00A9FD0546434B1B6813F0020FD2D0FFF79C
:100AAC00A1FD401B0228F5D9032016E10120FFF718
:100ABC0001FF236813F0040F00F09880394BDB69B9
:100ACC0013F0805F33D1374BDA6942F08052DA6130
:100ADC00DB6903F080530193019B0125344B1B68A8
:100AEC0013F4807F25D0E368012B36D0002B4CD13A
:100AFC0003F1804303F504331A6A22F001021A62EF
:100B0C001A6A22F004021A622CE0284B00221A60A6
:100B1C00FFF768FD0546234B5B6A13F0020FC8D044
:100B2C00FFF760FD401B0228F5D90320D5E0002516
:100B3C00D4E71F4A136843F480731360FFF752FD28
:100B4C0006461B4B1B6813F4807FCCD1FFF74AFD84
:100B5C00801B6428F5D90320BFE0124A136A43F0C6
:100B6C0001031362E3687BB3FFF73CFD06460D4BB4
:100B7C001B6A13F0020F38D1FFF734FD801B41F2D2
:100B8C0088339842F3D90320A7E0052B12D0054BEC
:100B9C001A6A22F001021A621A6A22F004021A621C
:100BAC00E0E700BF001002400000424280044242D5
:100BBC00007000404C4B1A6A42F004021A621A6A26
:100BCC0042F001021A62CDE7FFF70CFD0646464BD8
:100BDC001B6A13F0020F08D0FFF704FD801B41F2D3
:100BEC0088339842F3D9032077E0E5B9E369002B09
:100BFC0072D03D4A526802F00C02082A56D0022BE1
:100C0C0017D03A4B00221A60FFF7ECFC0446364B27
:100C1C001B6813F0007F47D0FFF7E4FC001B022891
:100C2C00F5D9032059E0304AD36923F08053D361BE
:100C3C00DCE72E4B00221A60FFF7D4FC05462A4B4A
:100C4C001B6813F0007F06D0FFF7CCFC401B02287A
:100C5C00F5D9032041E0236AB3F5803F1AD022492D
:100C6C004B6823F47413226A606A024313434B608B
:100C7C001E4B01221A60FFF7B5FC04461A4B1B6889
:100C8C0013F0007F0ED1FFF7ADFC001B0228F5D945
:100C9C00032022E0144A536823F40033A1680B4369
:100CAC005360DCE7002018E0002016E0012B16D082
:100CBC000D4B5B6803F48031226A914201D0012014
:100CCC000BE003F47013626A93420AD0012004E033
:100CDC0001207047012000E0002002B070BD01200F
:100CEC00FBE70020F9E700BF001002406000424221
:100CFC0010B487B0164C94E80F000DF1180C0CE9E9
:100D0C000F00238AADF80430124B5B6803F00C0221
:100D1C00082A1AD1C3F38342624412F8102C13F43C
:100D2C00803F05D10C4800FB02F007B010BC7047A7
:100D3C00084B5B68C3F34043634413F8143C074807
:100D4C0000FB02F0B0FBF3F0EFE70448EDE700BF67
:100D5C00401600080010024000093D0000127A0005
:100D6C00002800F0A38070B50446524B1B6803F0BA
:100D7C0007038B420CD24F4A136823F007030B4333
:100D8C001360136803F007038B4201D0012070BD80
:100D9C00236813F0020F17D013F0040F04D0464A47
:100DAC00536843F4E0635360236813F0080F04D0D6
:100DBC00414A536843F4605353603F4A536823F0ED
:100DCC00F003A068034353600D46236813F0010F32
:100DDC0031D06368012B20D0022B25D0364A126803
:100DEC0012F0020F64D034494A6822F00302134314
:100DFC004B60FFF7F7FB06462F4B5B6803F00C03C9
:100E0C006268B3EB820F16D0FFF7ECFB801B41F24C
:100E1C0088339842F0D90320B9E7274A126812F4B4
:100E2C00003FE0D10120B2E7234A126812F0007FA4
:100E3C00D9D10120ABE71F4B1B6803F00703AB4272
:100E4C000CD91C4A136823F007032B431360136857
:100E5C0003F00703AB4201D0012098E7236813F09D
:100E6C00040F06D0144A536823F4E063E1680B4383
:100E7C005360236813F0080F07D00F4A536823F40C
:100E8C006053216943EAC1035360FFF731FF0A4BFA
:100E9C005B68C3F30313094AD35CD840084B186052
:100EAC00084B1868FFF75CFB002070E701207047C7
:100EBC0001206CE7002002400010024028160008B8
:100ECC00000000200800002070B4036A23F0010326
:100EDC000362036A4268846924F073040D6845EA6E
:100EEC00040623F002048B6823430D4DA84209D05D
:100EFC000B4DA8420DD0426086614A684263036282
:100F0C0070BC704723F00803CC68234323F0040320
:100F1C00EEE722F440724C6914438A692243EAE7F3
:100F2C00002C014030B4036A23F480730362036A1B
:100F3C004268C46924F073040D682C4323F40073D5
:100F4C008D6843EA05230F4DA84209D00D4DA842E8
:100F5C000ED04260C4614A68C263036230BC704701
:100F6C0023F40063CD6843EA052323F48063EDE7A3
:100F7C0022F440524D6942EA05128D6942EA05128B
:100F8C00E7E700BF002C014030B4036A23F4805320
:100F9C000362036A4468C26922F4E6420D6842EABD
:100FAC00052223F400538D6843EA0533074DA8420C
:100FBC0006D04460C2614A680264036230BC704768
:100FCC0024F480444D6944EA8514F2E7002C014076
:100FDC0010B4036A046A24F001040462846924F0E6
:100FEC00F00444EA021223F00A030B438261036209
:100FFC0010BC704710B4036A23F0100303628469B9
:10100C00036A24F4704444EA023223F0A00343EA56
:10101C0001138261036210BC7047836823F0700374
:10102C00194341F0070181607047704703681B4A00
:10103C0090420AD0B0F1804F07D0A2F59432904282
:10104C0003D002F58062904203D123F070034A680A
:10105C001343124A90420AD0B0F1804F07D0A2F548
:10106C009432904203D002F58062904203D123F473
:10107C004073CA68134323F080034A691343036027
:10108C008B68C3620B688362044B984202D00123C5
:10109C00436170470B690363F9E700BF002C014003
:1010AC0038B310B5044690F83D30EBB1022384F808
:1010BC003D30211D2068FFF7B9FF012384F846302D
:1010CC0084F83E3084F83F3084F8403084F8413066
:1010DC0084F8423084F8433084F8443084F8453046
:1010EC0084F83D30002010BD80F83C30FFF7F0F95B
:1010FC00DCE70120704738B310B5044690F83D305A
:10110C00EBB1022384F83D30211D2068FFF78EFFE0
:10111C00012384F8463084F83E3084F83F3084F85C
:10112C00403084F8413084F8423084F8433084F8FD
:10113C00443084F8453084F83D30002010BD80F8F0
:10114C003C30FFF772FFDCE70120704730B4036AD4
:10115C0023F010030362036A4468826922F4E642B6
:10116C000D6842EA052223F020038D6843EA05133B
:10117C000E4DA84209D00D4DA8420ED0446082619C
:10118C004A688263036230BC704723F08003CD68E9
:10119C0043EA051323F04003EDE724F440644D6962
:1011AC0044EA85048D6944EA8504E7E7002C014094
:1011BC0038B590F83C30012B60D00D460446012325
:1011CC0080F83C300C2A1AD8DFE802F007191919FC
:1011DC001D1919193119191944000068FFF774FE0B
:1011EC002268936943F0080393612268936923F0A2
:1011FC00040393612268936929690B43936100206E
:10120C0084F83C0038BD0068FFF7A0FF22689369A2
:10121C0043F4006393612268936923F480639361C0
:10122C0022689369296943EA01239361E7E700681F
:10123C00FFF778FE2268D36943F00803D361226874
:10124C00D36923F00403D3612268D36929690B4362
:10125C00D361D4E70068FFF797FE2268D36943F4A3
:10126C000063D3612268D36923F48063D36122685D
:10127C00D369296943EA0123D361C0E70220C1E79E
:10128C0010B4846824F47F4442EA03230B432343C1
:10129C00836010BC704790F83C30012B66D010B5C1
:1012AC000446012380F83C30022380F83D3002686C
:1012BC00936823F47F4323F0770393600B68402BF0
:1012CC004AD013D9602B3DD01ED9702B28D0B3F542
:1012DC00005F30D1CB684A6889680068FFF7D0FF9F
:1012EC002268936843F48043936024E0102B06D06B
:1012FC0004D9202B03D0302B01D01CE0DBB91946CC
:10130C002068FFF78AFE16E0502B14D1CA68496892
:10131C000068FFF75DFE50212068FFF77EFE0AE0B3
:10132C00CB684A6889680068FFF7AAFF226893684F
:10133C0043F077039360012384F83D30002084F858
:10134C003C0010BDCA6849680068FFF753FE602175
:10135C002068FFF762FEEEE7CA6849680068FFF78D
:10136C0037FE40212068FFF758FEE4E70220704763
:10137C0010B401F01F01012303FA01F4036A23EAFC
:10138C0004030362036A8A401343036210BC704770
:10139C000A4669BB90F83E30DBB213F1FF3318BF3D
:1013AC000123002B60D110B5002A3DD1022380F817
:1013BC003E301146044601220068FFF7D9FF23682E
:1013CC002B4A934240D02368294A934241D0B3F12F
:1013DC00804F3ED0A2F5943293423AD002F580620F
:1013EC00934236D01A6842F001021A6000203AE0AB
:1013FC00042909D008290FD090F84130DBB213F141
:10140C00FF3318BF0123CCE790F83F30DBB213F168
:10141C00FF3318BF0123C4E790F84030DBB213F15F
:10142C00FF3318BF0123BCE7042A05D0082A07D0D4
:10143C00022380F84130BCE7022380F83F30B8E744
:10144C00022380F84030B4E75A6C42F400425A64EC
:10145C00B9E79A6802F00702062A07D01A6842F028
:10146C0001021A60002010BD012070470020FAE72D
:10147C00002C014038B504460D4600220068FFF7E9
:10148C0077FF23681B4A934217D02368196A41F2ED
:10149C001112114208D1196A40F24442114203D18F
:1014AC001A6822F001021A60B5B1042D19D0082D6A
:1014BC001BD0012384F8413011E0196A41F211125A
:1014CC001142E2D1196A40F244421142DDD15A6C08
:1014DC0022F400425A64D8E7012384F83E300020FD
:1014EC0038BD012384F83F30F9E7012384F84030FC
:1014FC00F5E700BF002C014090F83C30012B2BD0BD
:10150C0030B4012380F83C30022380F83D3003686E
:10151C005C689D6824F070040A6822435A60036872
:10152C000E4A93420AD0B3F1804F07D0A2F5943201
:10153C00934203D002F58062934204D125F08005DA
:10154C004A6815439D60012380F83D30002380F8E4
:10155C003C30184630BC704702207047002C0140CC
:10156C00002103E00B4B5B58435004310A480B4BF2
:10157C0042189A42F6D30A4A02E0002342F8043B8E
:10158C00084B9A42F9D3FEF7E9FF00F00FF8FEF78B
:10159C002BFF70475C160008000000200C00002098
:1015AC000C00002074000020FEE7000070B5002540
:1015BC000C4E0D4CA41BA410A54209D100F022F82E
:1015CC0000250A4E0A4CA41BA410A54205D170BDDF
:1015DC0056F8253098470135EEE756F825309847F0
:1015EC000135F2E75416000854160008541600088A
:1015FC005816000803460244934200D1704703F882
:10160C00011BF9E7F8B500BFF8BC08BC9E46704753
:0C161C00F8B500BFF8BC08BC9E46704743
:10162800000000000000000001020304060708098A
:10163800000000000102030402030405060708096C
:0C1648000A0B0C0D0E0F10100102000028
:041654003101000858
:041658000D01000878
:0C165C000024F400010000001000000059
:040000050800156D6D
:00000001FF
